{
  "contractName": "SpriteTower",
  "abi": [
    {
      "constant": true,
      "inputs": [],
      "name": "isLegal",
      "outputs": [
        {
          "name": "",
          "type": "bool"
        }
      ],
      "payable": false,
      "stateMutability": "view",
      "type": "function"
    },
    {
      "constant": true,
      "inputs": [],
      "name": "seller",
      "outputs": [
        {
          "name": "",
          "type": "address"
        }
      ],
      "payable": false,
      "stateMutability": "view",
      "type": "function"
    },
    {
      "constant": true,
      "inputs": [],
      "name": "refunded",
      "outputs": [
        {
          "name": "",
          "type": "bool"
        }
      ],
      "payable": false,
      "stateMutability": "view",
      "type": "function"
    },
    {
      "constant": false,
      "inputs": [],
      "name": "giveSalecoin",
      "outputs": [
        {
          "name": "complete",
          "type": "bool"
        }
      ],
      "payable": false,
      "stateMutability": "nonpayable",
      "type": "function"
    },
    {
      "constant": true,
      "inputs": [],
      "name": "getPot",
      "outputs": [
        {
          "name": "",
          "type": "uint256"
        }
      ],
      "payable": false,
      "stateMutability": "view",
      "type": "function"
    },
    {
      "constant": true,
      "inputs": [],
      "name": "isRecognizance",
      "outputs": [
        {
          "name": "",
          "type": "bool"
        }
      ],
      "payable": false,
      "stateMutability": "view",
      "type": "function"
    },
    {
      "constant": true,
      "inputs": [],
      "name": "complete",
      "outputs": [
        {
          "name": "",
          "type": "bool"
        }
      ],
      "payable": false,
      "stateMutability": "view",
      "type": "function"
    },
    {
      "constant": false,
      "inputs": [],
      "name": "checkData",
      "outputs": [
        {
          "name": "complete",
          "type": "bool"
        }
      ],
      "payable": false,
      "stateMutability": "nonpayable",
      "type": "function"
    },
    {
      "constant": false,
      "inputs": [],
      "name": "refund",
      "outputs": [
        {
          "name": "complete",
          "type": "bool"
        }
      ],
      "payable": false,
      "stateMutability": "nonpayable",
      "type": "function"
    },
    {
      "constant": false,
      "inputs": [
        {
          "name": "_message",
          "type": "bytes32"
        }
      ],
      "name": "pledge",
      "outputs": [
        {
          "name": "complete",
          "type": "bool"
        }
      ],
      "payable": false,
      "stateMutability": "nonpayable",
      "type": "function"
    },
    {
      "constant": true,
      "inputs": [],
      "name": "intermediary",
      "outputs": [
        {
          "name": "",
          "type": "address"
        }
      ],
      "payable": false,
      "stateMutability": "view",
      "type": "function"
    },
    {
      "constant": true,
      "inputs": [],
      "name": "numPledges",
      "outputs": [
        {
          "name": "",
          "type": "uint256"
        }
      ],
      "payable": false,
      "stateMutability": "view",
      "type": "function"
    },
    {
      "constant": true,
      "inputs": [
        {
          "name": "",
          "type": "uint256"
        }
      ],
      "name": "pledges",
      "outputs": [
        {
          "name": "num",
          "type": "uint256"
        },
        {
          "name": "buyer",
          "type": "address"
        },
        {
          "name": "message",
          "type": "bytes32"
        }
      ],
      "payable": false,
      "stateMutability": "view",
      "type": "function"
    },
    {
      "inputs": [
        {
          "name": "_seller",
          "type": "address"
        }
      ],
      "payable": false,
      "stateMutability": "nonpayable",
      "type": "constructor"
    }
  ],
  "bytecode": "0x6060604052341561000f57600080fd5b6040516020806109cb83398101604052808051906020019091905050336000806101000a81548173ffffffffffffffffffffffffffffffffffffffff021916908373ffffffffffffffffffffffffffffffffffffffff16021790555060006002819055506000600160146101000a81548160ff0219169083151502179055506000600160156101000a81548160ff02191690831515021790555080600160006101000a81548173ffffffffffffffffffffffffffffffffffffffff021916908373ffffffffffffffffffffffffffffffffffffffff160217905550506108d1806100fa6000396000f3006060604052600436106100c5576000357c0100000000000000000000000000000000000000000000000000000000900463ffffffff16806301ff2c22146100ca57806308551a53146100f757806312f539501461014c57806320f54a7d14610179578063403c9fa8146101a65780634b948177146101cf578063522e1177146101fc57806357c9e16514610229578063590e1ae31461025657806376bf80441461028357806379fd022e146102c2578063a46f7d1914610317578063ac12408114610340575b600080fd5b34156100d557600080fd5b6100dd6103b9565b604051808215151515815260200191505060405180910390f35b341561010257600080fd5b61010a6103cc565b604051808273ffffffffffffffffffffffffffffffffffffffff1673ffffffffffffffffffffffffffffffffffffffff16815260200191505060405180910390f35b341561015757600080fd5b61015f6103f2565b604051808215151515815260200191505060405180910390f35b341561018457600080fd5b61018c610405565b604051808215151515815260200191505060405180910390f35b34156101b157600080fd5b6101b96104fc565b6040518082815260200191505060405180910390f35b34156101da57600080fd5b6101e261051b565b604051808215151515815260200191505060405180910390f35b341561020757600080fd5b61020f61052e565b604051808215151515815260200191505060405180910390f35b341561023457600080fd5b61023c610541565b604051808215151515815260200191505060405180910390f35b341561026157600080fd5b6102696105f7565b604051808215151515815260200191505060405180910390f35b341561028e57600080fd5b6102a8600480803560001916906020019091905050610737565b604051808215151515815260200191505060405180910390f35b34156102cd57600080fd5b6102d5610830565b604051808273ffffffffffffffffffffffffffffffffffffffff1673ffffffffffffffffffffffffffffffffffffffff16815260200191505060405180910390f35b341561032257600080fd5b61032a610855565b6040518082815260200191505060405180910390f35b341561034b57600080fd5b610361600480803590602001909190505061085b565b604051808481526020018373ffffffffffffffffffffffffffffffffffffffff1673ffffffffffffffffffffffffffffffffffffffff1681526020018260001916600019168152602001935050505060405180910390f35b600160169054906101000a900460ff1681565b600160009054906101000a900473ffffffffffffffffffffffffffffffffffffffff1681565b600160149054906101000a900460ff1681565b60008060009054906101000a900473ffffffffffffffffffffffffffffffffffffffff1673ffffffffffffffffffffffffffffffffffffffff163373ffffffffffffffffffffffffffffffffffffffff161415806104605750805b806104775750600160149054906101000a900460ff165b1561048557600090506104f9565b600160009054906101000a900473ffffffffffffffffffffffffffffffffffffffff1673ffffffffffffffffffffffffffffffffffffffff166108fc3073ffffffffffffffffffffffffffffffffffffffff16319081150290604051600060405180830381858888f1935050505050600190505b90565b60003073ffffffffffffffffffffffffffffffffffffffff1631905090565b600160179054906101000a900460ff1681565b600160159054906101000a900460ff1681565b6000600160169054906101000a900460ff168061056a5750600160179054906101000a900460ff165b806105725750805b1561058057600090506105f4565b600160009054906101000a900473ffffffffffffffffffffffffffffffffffffffff1673ffffffffffffffffffffffffffffffffffffffff166108fc3073ffffffffffffffffffffffffffffffffffffffff16319081150290604051600060405180830381858888f1935050505050600190505b90565b6000806000809054906101000a900473ffffffffffffffffffffffffffffffffffffffff1673ffffffffffffffffffffffffffffffffffffffff163373ffffffffffffffffffffffffffffffffffffffff161415806106535750815b8061066a5750600160149054906101000a900460ff165b156106785760009150610733565b600090505b600254811015610714576003600082815260200190815260200160002060010160009054906101000a900473ffffffffffffffffffffffffffffffffffffffff1673ffffffffffffffffffffffffffffffffffffffff166108fc60036000848152602001908152602001600020600001549081150290604051600060405180830381858888f193505050505080600101905061067d565b60018060146101000a81548160ff021916908315150217905550600191505b5090565b6000803414806107445750805b8061075b5750600160149054906101000a900460ff165b15610769576000905061082b565b6060604051908101604052803481526020013373ffffffffffffffffffffffffffffffffffffffff16815260200183600019168152506003600060025481526020019081526020016000206000820151816000015560208201518160010160006101000a81548173ffffffffffffffffffffffffffffffffffffffff021916908373ffffffffffffffffffffffffffffffffffffffff160217905550604082015181600201906000191690559050506002600081548092919060010191905055505b919050565b6000809054906101000a900473ffffffffffffffffffffffffffffffffffffffff1681565b60025481565b60036020528060005260406000206000915090508060000154908060010160009054906101000a900473ffffffffffffffffffffffffffffffffffffffff169080600201549050835600a165627a7a72305820d1b0c27066e176d212483165a3b571bfdd0b846d5c55eec1d8c724de755a66bf0029",
  "source": "pragma solidity ^0.4.18;\r\n  \r\ncontract SpriteTower {\r\n\r\n  address public intermediary;  // 仲介\r\n  address public seller;        // 賣方\r\n\r\n  bool public refunded;         // 是否已交付保證金\r\n  bool public complete;         // 是否已完成交易\r\n  bool public isLegal;          // 是否合法\r\n  bool public isRecognizance;   // 是否給予保證金\r\n  uint public numPledges;\r\n\r\n  struct Pledge {               // 使用權狀-合約資料\r\n    uint num;                   // 編號\r\n    address buyer;              // 買方\r\n    bytes32 message;             // 相關訊息\r\n  }\r\n  \r\n  mapping(uint => Pledge) public pledges;\r\n\r\n  // constructor 建構式-初始化合約\r\n  function SpriteTower(address _seller) {\r\n    intermediary = msg.sender;\r\n    numPledges = 0;\r\n    refunded = false;\r\n    complete = false;\r\n    seller = _seller;\r\n  }\r\n\r\n  // add a new pledge 新合約\r\n  function pledge(bytes32 _message) public returns(bool complete) {\r\n    if (msg.value == 0 || complete || refunded) return false;\r\n    pledges[numPledges] = Pledge(msg.value, msg.sender, _message);\r\n    numPledges++;\r\n  }\r\n\r\n  // 取得合約當前金額\r\n  function getPot() constant returns (uint) {\r\n    return this.balance;\r\n  }\r\n\r\n  // 塔位交易出現問題時的退款處理\r\n  function refund() public returns(bool complete) {\r\n    if (msg.sender != intermediary || complete || refunded)  return false;\r\n    for (uint i = 0; i < numPledges; ++i) {\r\n      pledges[i].buyer.send(pledges[i].num);\r\n    }\r\n    refunded = true;\r\n    complete = true;\r\n  }\r\n\r\n  // 交易完成時 將金額移交給賣家與仲介\r\n  function giveSalecoin() public returns(bool complete) {\r\n    if (msg.sender != intermediary || complete || refunded)  return false;\r\n    seller.send(this.balance);\r\n    complete = true;\r\n  }\r\n\r\n  // 檢查合約項目\r\n  function checkData() public returns(bool complete) {\r\n    if ( isLegal || isRecognizance || complete)  return false;\r\n    seller.send(this.balance);\r\n    complete = true;\r\n  }\r\n}",
  "sourcePath": "D:\\Project\\Node.js\\myproject\\contracts\\start.sol",
  "compiler": {
    "name": "solc",
    "version": "0.4.18+commit.9cf6e910.Emscripten.clang"
  },
  "schemaVersion": "1.0.1",
  "updatedAt": "2018-01-09T08:29:36.738Z"
}